:08000300454E4100454E42004C
:03000E00011100DD
:07028400AE071FEE70FA2225
:10024400EFD394007480948040127E6EEED39400B9
:0C0254007480948040031E80F31F80E43F
:01026000227B
:10027400758901758CFF758AF7D2AFD2A9D28C2209
:100124008F0E8C0F8D10E510450F7005C2A0C2A56F
:1001340022AF0EEF3395E0FE7403B5071C7400B5CF
:100144000617D3E5109400E50F648094804005D22F
:10015400A3C2A422C2A3D2A422AF0EEF3395E0FE21
:100164007407B5071B7400B50616D3E5109400E5B3
:100174000F648094804005D2A1C2A222C2A1D2A25F
:010184002258
:08021F007D507F507C007E0041
:100227008E0A8F0B8C0C8D0D1202747F03AD0BACF5
:0D0237000A1201247F07AD0DAC0C0201245A
:1002610020B1057D1412022120B3077D507F1412A5
:0302710002232243
:1000A200D2AFD2AAD3E51194127480948050721206
:1000B200026120B202D28AE5111201F900E00100C8
:1000C200E20200E60300F10400E20500F90700E2A3
:1000D2000801010C010E0D01180E000000A6801788
:1000E2007D50801512021F7DB07CFF7F6480237DCE
:1000F200507C007F14801B7D147C007F5080131283
:10010200021F7D647C007FB07EFF800F7D507C00EB
:100112007F147E008005E4FDFCFFFE120227020030
:01012200A636
:0101230022B9
:03000B000201C728
:1001C700C0E0C0D0C28C758CFF758AF7D28C05123F
:1001D700C3E5129464748094804003751200E5129D
:1001E700D3951350057514018003751400D0D0D032
:0201F700E032F4
:0300130002018562
:10018500C0E0C0F0C083C082C0D075D000C000C040
:1001950001C002C003C004C005C006C00720B205E7
:1001A50012000080F80511D007D006D005D004D084
:1001B50003D002D001D000D0D0D082D083D0F0D0EF
:0201C500E03226
:03000000020016E5
:0C001600787FE4F6D8FD75811402005DCF
:1001F900D083D082F8E4937012740193700DA3A395
:1002090093F8740193F5828883E4737402936860A8
:06021900EFA3A3A380DFA8
:100022000200A2E493A3F8E493A34003F68001F252
:1000320008DFF48029E493A3F85407240CC8C333DF
:10004200C4540F4420C8834004F456800146F6DFAE
:10005200E4800B010204081020408090000EE47E30
:10006200019360BCA3FF543F30E509541FFEE493A3
:10007200A360010ECF54C025E060A840B8E493A36A
:10008200FAE493A3F8E493A3C8C582C8CAC583CA95
:10009200F0A3C8C582C8CAC583CADFE9DEE780BE4D
:0100110000EE
:00000001FF
